{
  "contractName": "CoinfightDepositsWithdrawals",
  "abi": [
    {
      "inputs": [
        {
          "internalType": "contract IERC20",
          "name": "_token",
          "type": "address"
        }
      ],
      "stateMutability": "nonpayable",
      "type": "constructor"
    },
    {
      "anonymous": false,
      "inputs": [
        {
          "indexed": false,
          "internalType": "address payable",
          "name": "forAccount",
          "type": "address"
        },
        {
          "indexed": false,
          "internalType": "uint256",
          "name": "amount",
          "type": "uint256"
        }
      ],
      "name": "DepositMade",
      "type": "event"
    },
    {
      "anonymous": false,
      "inputs": [
        {
          "indexed": false,
          "internalType": "uint256",
          "name": "amount",
          "type": "uint256"
        }
      ],
      "name": "HoneypotAdded",
      "type": "event"
    },
    {
      "anonymous": false,
      "inputs": [
        {
          "indexed": true,
          "internalType": "address",
          "name": "previousOwner",
          "type": "address"
        },
        {
          "indexed": true,
          "internalType": "address",
          "name": "newOwner",
          "type": "address"
        }
      ],
      "name": "OwnershipTransferred",
      "type": "event"
    },
    {
      "anonymous": false,
      "inputs": [
        {
          "indexed": false,
          "internalType": "address payable",
          "name": "toAccount",
          "type": "address"
        },
        {
          "indexed": false,
          "internalType": "uint256",
          "name": "amount",
          "type": "uint256"
        }
      ],
      "name": "WithdrawalMade",
      "type": "event"
    },
    {
      "inputs": [],
      "name": "owner",
      "outputs": [
        {
          "internalType": "address",
          "name": "",
          "type": "address"
        }
      ],
      "stateMutability": "view",
      "type": "function"
    },
    {
      "inputs": [],
      "name": "renounceOwnership",
      "outputs": [],
      "stateMutability": "nonpayable",
      "type": "function"
    },
    {
      "inputs": [],
      "name": "token",
      "outputs": [
        {
          "internalType": "contract IERC20",
          "name": "",
          "type": "address"
        }
      ],
      "stateMutability": "view",
      "type": "function"
    },
    {
      "inputs": [
        {
          "internalType": "address",
          "name": "newOwner",
          "type": "address"
        }
      ],
      "name": "transferOwnership",
      "outputs": [],
      "stateMutability": "nonpayable",
      "type": "function"
    },
    {
      "inputs": [
        {
          "internalType": "address payable",
          "name": "forAccount",
          "type": "address"
        },
        {
          "internalType": "uint256",
          "name": "amount",
          "type": "uint256"
        }
      ],
      "name": "deposit",
      "outputs": [],
      "stateMutability": "nonpayable",
      "type": "function"
    },
    {
      "inputs": [
        {
          "internalType": "uint256",
          "name": "amount",
          "type": "uint256"
        }
      ],
      "name": "addHoneypot",
      "outputs": [],
      "stateMutability": "nonpayable",
      "type": "function"
    },
    {
      "inputs": [
        {
          "internalType": "address payable",
          "name": "toAccount",
          "type": "address"
        },
        {
          "internalType": "uint256",
          "name": "amount",
          "type": "uint256"
        }
      ],
      "name": "withdraw",
      "outputs": [],
      "stateMutability": "nonpayable",
      "type": "function"
    }
  ],
  "bytecode": "0x60806040523480156200001157600080fd5b5060405162000f6038038062000f60833981810160405281019062000037919062000182565b620000576200004b6200009f60201b60201c565b620000a760201b60201c565b80600160006101000a81548173ffffffffffffffffffffffffffffffffffffffff021916908373ffffffffffffffffffffffffffffffffffffffff1602179055505062000210565b600033905090565b60008060009054906101000a900473ffffffffffffffffffffffffffffffffffffffff169050816000806101000a81548173ffffffffffffffffffffffffffffffffffffffff021916908373ffffffffffffffffffffffffffffffffffffffff1602179055508173ffffffffffffffffffffffffffffffffffffffff168173ffffffffffffffffffffffffffffffffffffffff167f8be0079c531659141344cd1fd0a4f28419497f9722a3daafe3b4186f6b6457e060405160405180910390a35050565b6000815190506200017c81620001f6565b92915050565b6000602082840312156200019557600080fd5b6000620001a5848285016200016b565b91505092915050565b6000620001bb82620001d6565b9050919050565b6000620001cf82620001ae565b9050919050565b600073ffffffffffffffffffffffffffffffffffffffff82169050919050565b6200020181620001c2565b81146200020d57600080fd5b50565b610d4080620002206000396000f3fe608060405234801561001057600080fd5b506004361061007d5760003560e01c80638da5cb5b1161005b5780638da5cb5b146100c4578063f2fde38b146100e2578063f3fef3a3146100fe578063fc0c546a1461011a5761007d565b806347e7ef2414610082578063715018a61461009e57806384bc52c5146100a8575b600080fd5b61009c6004803603810190610097919061075e565b610138565b005b6100a66101c1565b005b6100c260048036038101906100bd91906107c3565b6101d5565b005b6100cc61025b565b6040516100d99190610a4f565b60405180910390f35b6100fc60048036038101906100f79190610735565b610284565b005b6101186004803603810190610113919061075e565b610308565b005b61012261047e565b60405161012f9190610af3565b60405180910390f35b6000811161017b576040517f08c379a000000000000000000000000000000000000000000000000000000000815260040161017290610b2e565b60405180910390fd5b610184816104a4565b7fd15c9547ea5c06670c0010ce19bc32d54682a4b3801ece7f3ab0c3f17106b4bb82826040516101b5929190610a6a565b60405180910390a15050565b6101c9610597565b6101d36000610615565b565b60008111610218576040517f08c379a000000000000000000000000000000000000000000000000000000000815260040161020f90610b8e565b60405180910390fd5b610221816104a4565b7f44445990747449c95f2d1b30b52a17d748b14225117585de630ad1263609e771816040516102509190610bce565b60405180910390a150565b60008060009054906101000a900473ffffffffffffffffffffffffffffffffffffffff16905090565b61028c610597565b600073ffffffffffffffffffffffffffffffffffffffff168173ffffffffffffffffffffffffffffffffffffffff1614156102fc576040517f08c379a00000000000000000000000000000000000000000000000000000000081526004016102f390610b0e565b60405180910390fd5b61030581610615565b50565b610310610597565b60008111610353576040517f08c379a000000000000000000000000000000000000000000000000000000000815260040161034a90610b6e565b60405180910390fd5b600160009054906101000a900473ffffffffffffffffffffffffffffffffffffffff1673ffffffffffffffffffffffffffffffffffffffff1663a9059cbb83836040518363ffffffff1660e01b81526004016103b0929190610a93565b602060405180830381600087803b1580156103ca57600080fd5b505af11580156103de573d6000803e3d6000fd5b505050506040513d601f19601f82011682018060405250810190610402919061079a565b610441576040517f08c379a000000000000000000000000000000000000000000000000000000000815260040161043890610bae565b60405180910390fd5b7fbc158bb64f05d6383aea69bbb0b20c1bbf4b7a18f63359c5649b7c39e29d38848282604051610472929190610a6a565b60405180910390a15050565b600160009054906101000a900473ffffffffffffffffffffffffffffffffffffffff1681565b600160009054906101000a900473ffffffffffffffffffffffffffffffffffffffff1673ffffffffffffffffffffffffffffffffffffffff166323b872dd3330846040518463ffffffff1660e01b815260040161050393929190610abc565b602060405180830381600087803b15801561051d57600080fd5b505af1158015610531573d6000803e3d6000fd5b505050506040513d601f19601f82011682018060405250810190610555919061079a565b610594576040517f08c379a000000000000000000000000000000000000000000000000000000000815260040161058b90610bae565b60405180910390fd5b50565b61059f6106d9565b73ffffffffffffffffffffffffffffffffffffffff166105bd61025b565b73ffffffffffffffffffffffffffffffffffffffff1614610613576040517f08c379a000000000000000000000000000000000000000000000000000000000815260040161060a90610b4e565b60405180910390fd5b565b60008060009054906101000a900473ffffffffffffffffffffffffffffffffffffffff169050816000806101000a81548173ffffffffffffffffffffffffffffffffffffffff021916908373ffffffffffffffffffffffffffffffffffffffff1602179055508173ffffffffffffffffffffffffffffffffffffffff168173ffffffffffffffffffffffffffffffffffffffff167f8be0079c531659141344cd1fd0a4f28419497f9722a3daafe3b4186f6b6457e060405160405180910390a35050565b600033905090565b6000813590506106f081610cae565b92915050565b60008135905061070581610cc5565b92915050565b60008151905061071a81610cdc565b92915050565b60008135905061072f81610cf3565b92915050565b60006020828403121561074757600080fd5b6000610755848285016106e1565b91505092915050565b6000806040838503121561077157600080fd5b600061077f858286016106f6565b925050602061079085828601610720565b9150509250929050565b6000602082840312156107ac57600080fd5b60006107ba8482850161070b565b91505092915050565b6000602082840312156107d557600080fd5b60006107e384828501610720565b91505092915050565b6107f581610c54565b82525050565b61080481610c0c565b82525050565b61081381610bfa565b82525050565b61082281610c66565b82525050565b6000610835602683610be9565b91507f4f776e61626c653a206e6577206f776e657220697320746865207a65726f206160008301527f64647265737300000000000000000000000000000000000000000000000000006020830152604082019050919050565b600061089b602d83610be9565b91507f596f7527726520747279696e6720746f206465706f736974207769746820612060008301527f76616c7565206f6620302e2e2e000000000000000000000000000000000000006020830152604082019050919050565b6000610901602083610be9565b91507f4f776e61626c653a2063616c6c6572206973206e6f7420746865206f776e65726000830152602082019050919050565b6000610941603383610be9565b91507f596f7527726520747279696e6720746f2070726f63657373206120776974686460008301527f726177616c2076616c7565206f6620302e2e2e000000000000000000000000006020830152604082019050919050565b60006109a7603783610be9565b91507f596f7527726520747279696e6720746f20637265617465206120686f6e65797060008301527f6f74207769746820612076616c7565206f6620302e2e2e0000000000000000006020830152604082019050919050565b6000610a0d601683610be9565b91507f546f6b656e207472616e73666572206661696c65642e000000000000000000006000830152602082019050919050565b610a4981610c4a565b82525050565b6000602082019050610a64600083018461080a565b92915050565b6000604082019050610a7f60008301856107fb565b610a8c6020830184610a40565b9392505050565b6000604082019050610aa860008301856107ec565b610ab56020830184610a40565b9392505050565b6000606082019050610ad1600083018661080a565b610ade602083018561080a565b610aeb6040830184610a40565b949350505050565b6000602082019050610b086000830184610819565b92915050565b60006020820190508181036000830152610b2781610828565b9050919050565b60006020820190508181036000830152610b478161088e565b9050919050565b60006020820190508181036000830152610b67816108f4565b9050919050565b60006020820190508181036000830152610b8781610934565b9050919050565b60006020820190508181036000830152610ba78161099a565b9050919050565b60006020820190508181036000830152610bc781610a00565b9050919050565b6000602082019050610be36000830184610a40565b92915050565b600082825260208201905092915050565b6000610c0582610c2a565b9050919050565b6000610c1782610c2a565b9050919050565b60008115159050919050565b600073ffffffffffffffffffffffffffffffffffffffff82169050919050565b6000819050919050565b6000610c5f82610c8a565b9050919050565b6000610c7182610c78565b9050919050565b6000610c8382610c2a565b9050919050565b6000610c9582610c9c565b9050919050565b6000610ca782610c2a565b9050919050565b610cb781610bfa565b8114610cc257600080fd5b50565b610cce81610c0c565b8114610cd957600080fd5b50565b610ce581610c1e565b8114610cf057600080fd5b50565b610cfc81610c4a565b8114610d0757600080fd5b5056fea2646970667358221220d9aff4d93895be3b5bae02b87c57263813e0c2b966bab0438d7edad84f91ada064736f6c63430008000033",
  "immutableReferences": {},
  "source": "pragma solidity ^0.8.0;\n\nimport \"@openzeppelin/contracts/access/Ownable.sol\";\nimport \"@openzeppelin/contracts/token/ERC20/IERC20.sol\";\n\ncontract CoinfightDepositsWithdrawals is Ownable {\n    // owner is the game server\n\n    IERC20 public token;\n\n    constructor(IERC20 _token)\n    {\n        token = _token;\n    }\n\n    // deposit is called by user (presumably through a dapp)\n    // event is emitted for the server to track, and the amount is forwarded to the server\n    event DepositMade(address payable forAccount, uint amount);\n\n    function pullDeposit(uint amount)\n        internal\n    {\n        require(token.transferFrom(msg.sender, address(this), amount), \"Token transfer failed.\");\n    }\n\n    function deposit(address payable forAccount, uint amount)\n        external\n    {\n        require(amount > 0, \"You're trying to deposit with a value of 0...\");\n\n        pullDeposit(amount);\n\n        emit DepositMade(forAccount, amount);\n    }\n\n    event HoneypotAdded(uint amount);\n\n    function addHoneypot(uint amount)\n        external\n    {\n        require(amount > 0, \"You're trying to create a honeypot with a value of 0...\");\n\n        pullDeposit(amount);\n\n        emit HoneypotAdded(amount);\n    }\n\n    // withdraw is called by server\n    // event is emitted and amount is sent to player\n    event WithdrawalMade(address payable toAccount, uint amount);\n\n    function withdraw(address payable toAccount, uint amount)\n        external\n        onlyOwner\n    {\n        require (amount > 0, \"You're trying to process a withdrawal value of 0...\");\n\n        require(token.transfer(toAccount, amount), \"Token transfer failed.\");\n\n        emit WithdrawalMade(toAccount, amount);\n    }\n}",
  "sourcePath": "/home/oglog/dev/cpp/coinfight/sol/contracts/CoinfightDepositsWithdrawals.sol",
  "compiler": {
    "name": "solc",
    "version": "0.8.0+commit.c7dfd78e.Emscripten.clang"
  },
  "schemaVersion": "3.4.0",
  "updatedAt": "2023-01-09T23:51:43.081Z",
  "devdoc": {
    "kind": "dev",
    "methods": {
      "owner()": {
        "details": "Returns the address of the current owner."
      },
      "renounceOwnership()": {
        "details": "Leaves the contract without owner. It will not be possible to call `onlyOwner` functions anymore. Can only be called by the current owner. NOTE: Renouncing ownership will leave the contract without an owner, thereby removing any functionality that is only available to the owner."
      },
      "transferOwnership(address)": {
        "details": "Transfers ownership of the contract to a new account (`newOwner`). Can only be called by the current owner."
      }
    },
    "version": 1
  },
  "userdoc": {
    "kind": "user",
    "methods": {},
    "version": 1
  }
}