{
  "contractName": "CoinfightDepositsWithdrawalsNative",
  "abi": [
    {
      "inputs": [],
      "stateMutability": "nonpayable",
      "type": "constructor"
    },
    {
      "anonymous": false,
      "inputs": [
        {
          "indexed": false,
          "internalType": "address payable",
          "name": "forAccount",
          "type": "address"
        },
        {
          "indexed": false,
          "internalType": "uint256",
          "name": "amount",
          "type": "uint256"
        }
      ],
      "name": "DepositMade",
      "type": "event"
    },
    {
      "anonymous": false,
      "inputs": [
        {
          "indexed": false,
          "internalType": "uint256",
          "name": "amount",
          "type": "uint256"
        }
      ],
      "name": "HoneypotAdded",
      "type": "event"
    },
    {
      "anonymous": false,
      "inputs": [
        {
          "indexed": true,
          "internalType": "address",
          "name": "previousOwner",
          "type": "address"
        },
        {
          "indexed": true,
          "internalType": "address",
          "name": "newOwner",
          "type": "address"
        }
      ],
      "name": "OwnershipTransferred",
      "type": "event"
    },
    {
      "anonymous": false,
      "inputs": [
        {
          "indexed": false,
          "internalType": "address payable",
          "name": "toAccount",
          "type": "address"
        },
        {
          "indexed": false,
          "internalType": "uint256",
          "name": "amount",
          "type": "uint256"
        }
      ],
      "name": "WithdrawalFailed",
      "type": "event"
    },
    {
      "anonymous": false,
      "inputs": [
        {
          "indexed": false,
          "internalType": "address payable",
          "name": "toAccount",
          "type": "address"
        },
        {
          "indexed": false,
          "internalType": "uint256",
          "name": "amount",
          "type": "uint256"
        }
      ],
      "name": "WithdrawalMade",
      "type": "event"
    },
    {
      "inputs": [],
      "name": "owner",
      "outputs": [
        {
          "internalType": "address",
          "name": "",
          "type": "address"
        }
      ],
      "stateMutability": "view",
      "type": "function"
    },
    {
      "inputs": [],
      "name": "renounceOwnership",
      "outputs": [],
      "stateMutability": "nonpayable",
      "type": "function"
    },
    {
      "inputs": [
        {
          "internalType": "address",
          "name": "newOwner",
          "type": "address"
        }
      ],
      "name": "transferOwnership",
      "outputs": [],
      "stateMutability": "nonpayable",
      "type": "function"
    },
    {
      "inputs": [
        {
          "internalType": "address payable",
          "name": "forAccount",
          "type": "address"
        }
      ],
      "name": "deposit",
      "outputs": [],
      "stateMutability": "payable",
      "type": "function"
    },
    {
      "inputs": [],
      "name": "addHoneypot",
      "outputs": [],
      "stateMutability": "payable",
      "type": "function"
    },
    {
      "inputs": [
        {
          "internalType": "address payable",
          "name": "toAccount",
          "type": "address"
        },
        {
          "internalType": "uint256",
          "name": "amount",
          "type": "uint256"
        }
      ],
      "name": "withdraw",
      "outputs": [],
      "stateMutability": "nonpayable",
      "type": "function"
    }
  ],
  "bytecode": "0x608060405234801561001057600080fd5b5061002d61002261003260201b60201c565b61003a60201b60201c565b6100fe565b600033905090565b60008060009054906101000a900473ffffffffffffffffffffffffffffffffffffffff169050816000806101000a81548173ffffffffffffffffffffffffffffffffffffffff021916908373ffffffffffffffffffffffffffffffffffffffff1602179055508173ffffffffffffffffffffffffffffffffffffffff168173ffffffffffffffffffffffffffffffffffffffff167f8be0079c531659141344cd1fd0a4f28419497f9722a3daafe3b4186f6b6457e060405160405180910390a35050565b6109cc8061010d6000396000f3fe6080604052600436106100555760003560e01c806337e357301461005a578063715018a6146100645780638da5cb5b1461007b578063f2fde38b146100a6578063f340fa01146100cf578063f3fef3a3146100eb575b600080fd5b610062610114565b005b34801561007057600080fd5b50610079610190565b005b34801561008757600080fd5b506100906101a4565b60405161009d91906107f3565b60405180910390f35b3480156100b257600080fd5b506100cd60048036038101906100c89190610560565b6101cd565b005b6100e960048036038101906100e49190610589565b610251565b005b3480156100f757600080fd5b50610112600480360381019061010d91906105b2565b6102d0565b005b60003411610157576040517f08c379a000000000000000000000000000000000000000000000000000000000815260040161014e906108b7565b60405180910390fd5b7f44445990747449c95f2d1b30b52a17d748b14225117585de630ad1263609e7713460405161018691906108d7565b60405180910390a1565b6101986103d7565b6101a26000610455565b565b60008060009054906101000a900473ffffffffffffffffffffffffffffffffffffffff16905090565b6101d56103d7565b600073ffffffffffffffffffffffffffffffffffffffff168173ffffffffffffffffffffffffffffffffffffffff161415610245576040517f08c379a000000000000000000000000000000000000000000000000000000000815260040161023c90610837565b60405180910390fd5b61024e81610455565b50565b60003411610294576040517f08c379a000000000000000000000000000000000000000000000000000000000815260040161028b90610857565b60405180910390fd5b7fd15c9547ea5c06670c0010ce19bc32d54682a4b3801ece7f3ab0c3f17106b4bb81346040516102c592919061080e565b60405180910390a150565b6102d86103d7565b6000811161031b576040517f08c379a000000000000000000000000000000000000000000000000000000000815260040161031290610897565b60405180910390fd5b60008273ffffffffffffffffffffffffffffffffffffffff166108fc839081150290604051600060405180830381858888f1935050505090508015610398577fbc158bb64f05d6383aea69bbb0b20c1bbf4b7a18f63359c5649b7c39e29d3884838360405161038b92919061080e565b60405180910390a16103d2565b7f92873d130824b495f22ad10f7f14028200557770e5986714318e78c54f3aa83c83836040516103c992919061080e565b60405180910390a15b505050565b6103df610519565b73ffffffffffffffffffffffffffffffffffffffff166103fd6101a4565b73ffffffffffffffffffffffffffffffffffffffff1614610453576040517f08c379a000000000000000000000000000000000000000000000000000000000815260040161044a90610877565b60405180910390fd5b565b60008060009054906101000a900473ffffffffffffffffffffffffffffffffffffffff169050816000806101000a81548173ffffffffffffffffffffffffffffffffffffffff021916908373ffffffffffffffffffffffffffffffffffffffff1602179055508173ffffffffffffffffffffffffffffffffffffffff168173ffffffffffffffffffffffffffffffffffffffff167f8be0079c531659141344cd1fd0a4f28419497f9722a3daafe3b4186f6b6457e060405160405180910390a35050565b600033905090565b60008135905061053081610951565b92915050565b60008135905061054581610968565b92915050565b60008135905061055a8161097f565b92915050565b60006020828403121561057257600080fd5b600061058084828501610521565b91505092915050565b60006020828403121561059b57600080fd5b60006105a984828501610536565b91505092915050565b600080604083850312156105c557600080fd5b60006105d385828601610536565b92505060206105e48582860161054b565b9150509250929050565b6105f781610915565b82525050565b61060681610903565b82525050565b60006106196026836108f2565b91507f4f776e61626c653a206e6577206f776e657220697320746865207a65726f206160008301527f64647265737300000000000000000000000000000000000000000000000000006020830152604082019050919050565b600061067f6028836108f2565b91507f596f7527726520747279696e6720746f206465706f73697420612076616c756560008301527f206f6620302e2e2e0000000000000000000000000000000000000000000000006020830152604082019050919050565b60006106e56020836108f2565b91507f4f776e61626c653a2063616c6c6572206973206e6f7420746865206f776e65726000830152602082019050919050565b60006107256033836108f2565b91507f596f7527726520747279696e6720746f2070726f63657373206120776974686460008301527f726177616c2076616c7565206f6620302e2e2e000000000000000000000000006020830152604082019050919050565b600061078b6037836108f2565b91507f596f7527726520747279696e6720746f20637265617465206120686f6e65797060008301527f6f74207769746820612076616c7565206f6620302e2e2e0000000000000000006020830152604082019050919050565b6107ed81610947565b82525050565b600060208201905061080860008301846105fd565b92915050565b600060408201905061082360008301856105ee565b61083060208301846107e4565b9392505050565b600060208201905081810360008301526108508161060c565b9050919050565b6000602082019050818103600083015261087081610672565b9050919050565b60006020820190508181036000830152610890816106d8565b9050919050565b600060208201905081810360008301526108b081610718565b9050919050565b600060208201905081810360008301526108d08161077e565b9050919050565b60006020820190506108ec60008301846107e4565b92915050565b600082825260208201905092915050565b600061090e82610927565b9050919050565b600061092082610927565b9050919050565b600073ffffffffffffffffffffffffffffffffffffffff82169050919050565b6000819050919050565b61095a81610903565b811461096557600080fd5b50565b61097181610915565b811461097c57600080fd5b50565b61098881610947565b811461099357600080fd5b5056fea2646970667358221220b93ae0281e9f3b63dae7d4d2629083b56ed7b4d07c04798b00f9f88e39727eb664736f6c63430008000033",
  "immutableReferences": {},
  "source": "pragma solidity ^0.8.0;\n\nimport \"@openzeppelin/contracts/access/Ownable.sol\";\n\ncontract CoinfightDepositsWithdrawalsNative is Ownable {\n    // owner is the game server\n\n    constructor() {}\n\n    // deposit is called by user (presumably through a dapp)\n    // event is emitted for the server to track\n    event DepositMade(address payable forAccount, uint amount);\n\n    function deposit(address payable forAccount) external payable\n    {\n        require(msg.value > 0, \"You're trying to deposit a value of 0...\");\n\n        emit DepositMade(forAccount, msg.value);\n    }\n\n    event HoneypotAdded(uint amount);\n\n    function addHoneypot() external payable\n    {\n        require(msg.value > 0, \"You're trying to create a honeypot with a value of 0...\");\n\n        emit HoneypotAdded(msg.value);\n    }\n\n    // withdraw is called by server\n    // event is emitted and amount is sent to player\n    event WithdrawalMade(address payable toAccount, uint amount);\n    event WithdrawalFailed(address payable toAccount, uint amount);\n\n    function withdraw(address payable toAccount, uint amount)\n        external\n        onlyOwner\n    {\n        require (amount > 0, \"You're trying to process a withdrawal value of 0...\");\n\n        bool success = toAccount.send(amount);\n\n        if (success)\n        {\n            emit WithdrawalMade(toAccount, amount);\n        }\n        else\n        {\n            emit WithdrawalFailed(toAccount, amount);\n        }\n    }\n}",
  "sourcePath": "/home/oglog/dev/coinfight/coinfight/sol/contracts/CoinfightDepositsWithdrawalsNative.sol",
  "compiler": {
    "name": "solc",
    "version": "0.8.0+commit.c7dfd78e.Emscripten.clang"
  },
  "schemaVersion": "3.4.0",
  "updatedAt": "2023-04-17T23:54:15.090Z",
  "devdoc": {
    "kind": "dev",
    "methods": {
      "owner()": {
        "details": "Returns the address of the current owner."
      },
      "renounceOwnership()": {
        "details": "Leaves the contract without owner. It will not be possible to call `onlyOwner` functions anymore. Can only be called by the current owner. NOTE: Renouncing ownership will leave the contract without an owner, thereby removing any functionality that is only available to the owner."
      },
      "transferOwnership(address)": {
        "details": "Transfers ownership of the contract to a new account (`newOwner`). Can only be called by the current owner."
      }
    },
    "version": 1
  },
  "userdoc": {
    "kind": "user",
    "methods": {},
    "version": 1
  }
}