{
  "contractName": "CoinfightDepositsWithdrawals",
  "abi": [
    {
      "anonymous": false,
      "inputs": [
        {
          "indexed": false,
          "internalType": "address payable",
          "name": "forAccount",
          "type": "address"
        },
        {
          "indexed": false,
          "internalType": "uint256",
          "name": "amount",
          "type": "uint256"
        }
      ],
      "name": "DepositMade",
      "type": "event"
    },
    {
      "anonymous": false,
      "inputs": [
        {
          "indexed": false,
          "internalType": "uint256",
          "name": "amount",
          "type": "uint256"
        }
      ],
      "name": "HoneypotAdded",
      "type": "event"
    },
    {
      "anonymous": false,
      "inputs": [
        {
          "indexed": true,
          "internalType": "address",
          "name": "previousOwner",
          "type": "address"
        },
        {
          "indexed": true,
          "internalType": "address",
          "name": "newOwner",
          "type": "address"
        }
      ],
      "name": "OwnershipTransferred",
      "type": "event"
    },
    {
      "anonymous": false,
      "inputs": [
        {
          "indexed": false,
          "internalType": "address payable",
          "name": "toAccount",
          "type": "address"
        },
        {
          "indexed": false,
          "internalType": "uint256",
          "name": "amount",
          "type": "uint256"
        }
      ],
      "name": "WithdrawalMade",
      "type": "event"
    },
    {
      "inputs": [],
      "name": "owner",
      "outputs": [
        {
          "internalType": "address",
          "name": "",
          "type": "address"
        }
      ],
      "stateMutability": "view",
      "type": "function"
    },
    {
      "inputs": [],
      "name": "renounceOwnership",
      "outputs": [],
      "stateMutability": "nonpayable",
      "type": "function"
    },
    {
      "inputs": [
        {
          "internalType": "address",
          "name": "newOwner",
          "type": "address"
        }
      ],
      "name": "transferOwnership",
      "outputs": [],
      "stateMutability": "nonpayable",
      "type": "function"
    },
    {
      "inputs": [
        {
          "internalType": "address payable",
          "name": "forAccount",
          "type": "address"
        }
      ],
      "name": "deposit",
      "outputs": [],
      "stateMutability": "payable",
      "type": "function"
    },
    {
      "inputs": [],
      "name": "addHoneypot",
      "outputs": [],
      "stateMutability": "payable",
      "type": "function"
    },
    {
      "inputs": [
        {
          "internalType": "address payable",
          "name": "toAccount",
          "type": "address"
        }
      ],
      "name": "withdraw",
      "outputs": [],
      "stateMutability": "payable",
      "type": "function"
    }
  ],
  "bytecode": "0x608060405234801561001057600080fd5b5061002d61002261003260201b60201c565b61003a60201b60201c565b6100fe565b600033905090565b60008060009054906101000a900473ffffffffffffffffffffffffffffffffffffffff169050816000806101000a81548173ffffffffffffffffffffffffffffffffffffffff021916908373ffffffffffffffffffffffffffffffffffffffff1602179055508173ffffffffffffffffffffffffffffffffffffffff168173ffffffffffffffffffffffffffffffffffffffff167f8be0079c531659141344cd1fd0a4f28419497f9722a3daafe3b4186f6b6457e060405160405180910390a35050565b610a988061010d6000396000f3fe6080604052600436106100555760003560e01c806337e357301461005a57806351cff8d914610064578063715018a6146100805780638da5cb5b14610097578063f2fde38b146100c2578063f340fa01146100eb575b600080fd5b610062610107565b005b61007e600480360381019061007991906106a8565b6101d1565b005b34801561008c57600080fd5b50610095610313565b005b3480156100a357600080fd5b506100ac61039b565b6040516100b991906108d6565b60405180910390f35b3480156100ce57600080fd5b506100e960048036038101906100e4919061067f565b6103c4565b005b610105600480360381019061010091906106a8565b6104bc565b005b6000341161014a576040517f08c379a00000000000000000000000000000000000000000000000000000000081526004016101419061099a565b60405180910390fd5b7f44445990747449c95f2d1b30b52a17d748b14225117585de630ad1263609e7713460405161017991906109ba565b60405180910390a161018961039b565b73ffffffffffffffffffffffffffffffffffffffff166108fc349081150290604051600060405180830381858888f193505050501580156101ce573d6000803e3d6000fd5b50565b6101d9610589565b73ffffffffffffffffffffffffffffffffffffffff166101f761039b565b73ffffffffffffffffffffffffffffffffffffffff161461024d576040517f08c379a00000000000000000000000000000000000000000000000000000000081526004016102449061095a565b60405180910390fd5b60003411610290576040517f08c379a00000000000000000000000000000000000000000000000000000000081526004016102879061097a565b60405180910390fd5b7fbc158bb64f05d6383aea69bbb0b20c1bbf4b7a18f63359c5649b7c39e29d388481346040516102c19291906108f1565b60405180910390a18073ffffffffffffffffffffffffffffffffffffffff166108fc349081150290604051600060405180830381858888f1935050505015801561030f573d6000803e3d6000fd5b5050565b61031b610589565b73ffffffffffffffffffffffffffffffffffffffff1661033961039b565b73ffffffffffffffffffffffffffffffffffffffff161461038f576040517f08c379a00000000000000000000000000000000000000000000000000000000081526004016103869061095a565b60405180910390fd5b6103996000610591565b565b60008060009054906101000a900473ffffffffffffffffffffffffffffffffffffffff16905090565b6103cc610589565b73ffffffffffffffffffffffffffffffffffffffff166103ea61039b565b73ffffffffffffffffffffffffffffffffffffffff1614610440576040517f08c379a00000000000000000000000000000000000000000000000000000000081526004016104379061095a565b60405180910390fd5b600073ffffffffffffffffffffffffffffffffffffffff168173ffffffffffffffffffffffffffffffffffffffff1614156104b0576040517f08c379a00000000000000000000000000000000000000000000000000000000081526004016104a79061091a565b60405180910390fd5b6104b981610591565b50565b600034116104ff576040517f08c379a00000000000000000000000000000000000000000000000000000000081526004016104f69061093a565b60405180910390fd5b7fd15c9547ea5c06670c0010ce19bc32d54682a4b3801ece7f3ab0c3f17106b4bb81346040516105309291906108f1565b60405180910390a161054061039b565b73ffffffffffffffffffffffffffffffffffffffff166108fc349081150290604051600060405180830381858888f19350505050158015610585573d6000803e3d6000fd5b5050565b600033905090565b60008060009054906101000a900473ffffffffffffffffffffffffffffffffffffffff169050816000806101000a81548173ffffffffffffffffffffffffffffffffffffffff021916908373ffffffffffffffffffffffffffffffffffffffff1602179055508173ffffffffffffffffffffffffffffffffffffffff168173ffffffffffffffffffffffffffffffffffffffff167f8be0079c531659141344cd1fd0a4f28419497f9722a3daafe3b4186f6b6457e060405160405180910390a35050565b60008135905061066481610a34565b92915050565b60008135905061067981610a4b565b92915050565b60006020828403121561069157600080fd5b600061069f84828501610655565b91505092915050565b6000602082840312156106ba57600080fd5b60006106c88482850161066a565b91505092915050565b6106da816109f8565b82525050565b6106e9816109e6565b82525050565b60006106fc6026836109d5565b91507f4f776e61626c653a206e6577206f776e657220697320746865207a65726f206160008301527f64647265737300000000000000000000000000000000000000000000000000006020830152604082019050919050565b6000610762602d836109d5565b91507f596f7527726520747279696e6720746f206465706f736974207769746820612060008301527f76616c7565206f6620302e2e2e000000000000000000000000000000000000006020830152604082019050919050565b60006107c86020836109d5565b91507f4f776e61626c653a2063616c6c6572206973206e6f7420746865206f776e65726000830152602082019050919050565b60006108086033836109d5565b91507f596f7527726520747279696e6720746f2070726f63657373206120776974686460008301527f726177616c2076616c7565206f6620302e2e2e000000000000000000000000006020830152604082019050919050565b600061086e6037836109d5565b91507f596f7527726520747279696e6720746f20637265617465206120686f6e65797060008301527f6f74207769746820612076616c7565206f6620302e2e2e0000000000000000006020830152604082019050919050565b6108d081610a2a565b82525050565b60006020820190506108eb60008301846106e0565b92915050565b600060408201905061090660008301856106d1565b61091360208301846108c7565b9392505050565b60006020820190508181036000830152610933816106ef565b9050919050565b6000602082019050818103600083015261095381610755565b9050919050565b60006020820190508181036000830152610973816107bb565b9050919050565b60006020820190508181036000830152610993816107fb565b9050919050565b600060208201905081810360008301526109b381610861565b9050919050565b60006020820190506109cf60008301846108c7565b92915050565b600082825260208201905092915050565b60006109f182610a0a565b9050919050565b6000610a0382610a0a565b9050919050565b600073ffffffffffffffffffffffffffffffffffffffff82169050919050565b6000819050919050565b610a3d816109e6565b8114610a4857600080fd5b50565b610a54816109f8565b8114610a5f57600080fd5b5056fea26469706673582212200b1efc1cf1995c351ea746faaf8b25baf203371aa8bab727f3568866443bd79c64736f6c63430008000033",
  "immutableReferences": {},
  "source": "pragma solidity ^0.8.0;\n\nimport \"@openzeppelin/contracts/access/Ownable.sol\";\n\ncontract CoinfightDepositsWithdrawals is Ownable {\n    // owner is the game server\n\n    // deposit is called by user (presumably through a dapp)\n    // event is emitted for the server to track, and the amount is forwarded to the server\n    event DepositMade(address payable forAccount, uint amount);\n\n    function deposit(address payable forAccount)\n        payable\n        external\n    {\n        require(msg.value > 0, \"You're trying to deposit with a value of 0...\");\n\n        emit DepositMade(forAccount, msg.value);\n\n        payable(owner()).transfer(msg.value);\n    }\n\n    event HoneypotAdded(uint amount);\n\n    function addHoneypot()\n        payable\n        external\n    {\n        require(msg.value > 0, \"You're trying to create a honeypot with a value of 0...\");\n\n        emit HoneypotAdded(msg.value);\n\n        payable(owner()).transfer(msg.value);\n    }\n\n    // withdraw is called by server\n    // event is emitted and amount is sent to player\n    event WithdrawalMade(address payable toAccount, uint amount);\n\n    function withdraw(address payable toAccount)\n        payable\n        external\n        onlyOwner\n    {\n        require (msg.value > 0, \"You're trying to process a withdrawal value of 0...\");\n\n        emit WithdrawalMade(toAccount, msg.value);\n\n        toAccount.transfer(msg.value);\n    }\n}",
  "sourcePath": "/home/oglog/dev/cpp/coinfight/sol/contracts/CoinfightDepositsWithdrawals.sol",
  "compiler": {
    "name": "solc",
    "version": "0.8.0+commit.c7dfd78e.Emscripten.clang"
  },
  "schemaVersion": "3.4.0",
  "updatedAt": "2022-03-16T15:13:17.001Z",
  "devdoc": {
    "kind": "dev",
    "methods": {
      "owner()": {
        "details": "Returns the address of the current owner."
      },
      "renounceOwnership()": {
        "details": "Leaves the contract without owner. It will not be possible to call `onlyOwner` functions anymore. Can only be called by the current owner. NOTE: Renouncing ownership will leave the contract without an owner, thereby removing any functionality that is only available to the owner."
      },
      "transferOwnership(address)": {
        "details": "Transfers ownership of the contract to a new account (`newOwner`). Can only be called by the current owner."
      }
    },
    "version": 1
  },
  "userdoc": {
    "kind": "user",
    "methods": {},
    "version": 1
  }
}